{
  "contractName": "Rating",
  "abi": [
    {
      "inputs": [
        {
          "internalType": "string[]",
          "name": "_bandList",
          "type": "string[]"
        }
      ],
      "payable": false,
      "stateMutability": "nonpayable",
      "type": "constructor"
    },
    {
      "anonymous": false,
      "inputs": [
        {
          "indexed": true,
          "internalType": "address",
          "name": "_from",
          "type": "address"
        },
        {
          "indexed": false,
          "internalType": "string",
          "name": "_band",
          "type": "string"
        },
        {
          "indexed": false,
          "internalType": "uint8",
          "name": "_rating",
          "type": "uint8"
        },
        {
          "indexed": false,
          "internalType": "uint8",
          "name": "_voteNum",
          "type": "uint8"
        }
      ],
      "name": "VoteApplied",
      "type": "event"
    },
    {
      "constant": true,
      "inputs": [
        {
          "internalType": "uint256",
          "name": "",
          "type": "uint256"
        }
      ],
      "name": "bandList",
      "outputs": [
        {
          "internalType": "string",
          "name": "",
          "type": "string"
        }
      ],
      "payable": false,
      "stateMutability": "view",
      "type": "function"
    },
    {
      "constant": true,
      "inputs": [
        {
          "internalType": "string",
          "name": "",
          "type": "string"
        }
      ],
      "name": "inBandList",
      "outputs": [
        {
          "internalType": "bool",
          "name": "",
          "type": "bool"
        }
      ],
      "payable": false,
      "stateMutability": "view",
      "type": "function"
    },
    {
      "constant": true,
      "inputs": [],
      "name": "maxRating",
      "outputs": [
        {
          "internalType": "uint8",
          "name": "",
          "type": "uint8"
        }
      ],
      "payable": false,
      "stateMutability": "view",
      "type": "function"
    },
    {
      "constant": true,
      "inputs": [],
      "name": "minRating",
      "outputs": [
        {
          "internalType": "uint8",
          "name": "",
          "type": "uint8"
        }
      ],
      "payable": false,
      "stateMutability": "view",
      "type": "function"
    },
    {
      "constant": true,
      "inputs": [
        {
          "internalType": "string",
          "name": "",
          "type": "string"
        },
        {
          "internalType": "uint256",
          "name": "",
          "type": "uint256"
        }
      ],
      "name": "numVotes",
      "outputs": [
        {
          "internalType": "uint8",
          "name": "",
          "type": "uint8"
        }
      ],
      "payable": false,
      "stateMutability": "view",
      "type": "function"
    },
    {
      "constant": true,
      "inputs": [
        {
          "internalType": "string",
          "name": "_band",
          "type": "string"
        }
      ],
      "name": "ratingFor",
      "outputs": [
        {
          "internalType": "uint8",
          "name": "",
          "type": "uint8"
        },
        {
          "internalType": "uint8",
          "name": "",
          "type": "uint8"
        }
      ],
      "payable": false,
      "stateMutability": "view",
      "type": "function"
    },
    {
      "constant": false,
      "inputs": [
        {
          "internalType": "string",
          "name": "_band",
          "type": "string"
        }
      ],
      "name": "add",
      "outputs": [],
      "payable": false,
      "stateMutability": "nonpayable",
      "type": "function"
    },
    {
      "constant": true,
      "inputs": [
        {
          "internalType": "string",
          "name": "_band",
          "type": "string"
        }
      ],
      "name": "contains",
      "outputs": [
        {
          "internalType": "bool",
          "name": "",
          "type": "bool"
        }
      ],
      "payable": false,
      "stateMutability": "view",
      "type": "function"
    },
    {
      "constant": false,
      "inputs": [
        {
          "internalType": "string",
          "name": "_band",
          "type": "string"
        },
        {
          "internalType": "uint8",
          "name": "_rating",
          "type": "uint8"
        }
      ],
      "name": "voteForBand",
      "outputs": [],
      "payable": false,
      "stateMutability": "nonpayable",
      "type": "function"
    },
    {
      "constant": true,
      "inputs": [],
      "name": "bandCount",
      "outputs": [
        {
          "internalType": "uint256",
          "name": "_count",
          "type": "uint256"
        }
      ],
      "payable": false,
      "stateMutability": "view",
      "type": "function"
    }
  ],
  "bytecode": "0x608060405260016000806101000a81548160ff021916908360ff160217905550600a600060016101000a81548160ff021916908360ff1602179055503480156200004857600080fd5b50604051620011c0380380620011c083398181016040526200006e919081019062000406565b8060039080519060200190620000869291906200019a565b5060008090505b81518160ff16101562000192576060828260ff1681518110620000ac57fe5b6020026020010151905060018082604051620000c9919062000482565b908152602001604051809103902060006101000a81548160ff021916908315150217905550600060016000809054906101000a900460ff160390505b600060019054906101000a900460ff1660ff168160ff1610156200018257600060028360405162000137919062000482565b90815260200160405180910390208260ff16600a81106200015457fe5b602091828204019190066101000a81548160ff021916908360ff160217905550808060010191505062000105565b505080806001019150506200008d565b50506200056b565b828054828255906000526020600020908101928215620001ee579160200282015b82811115620001ed578251829080519060200190620001dc92919062000201565b5091602001919060010190620001bb565b5b509050620001fd919062000288565b5090565b828054600181600116156101000203166002900490600052602060002090601f016020900481019282601f106200024457805160ff191683800117855562000275565b8280016001018555821562000275579182015b828111156200027457825182559160200191906001019062000257565b5b509050620002849190620002b9565b5090565b620002b691905b80821115620002b25760008181620002a89190620002e1565b506001016200028f565b5090565b90565b620002de91905b80821115620002da576000816000905550600101620002c0565b5090565b90565b50805460018160011615610100020316600290046000825580601f106200030957506200032a565b601f016020900490600052602060002090810190620003299190620002b9565b5b50565b600082601f8301126200033f57600080fd5b8151620003566200035082620004c9565b6200049b565b9150818183526020840193506020810190508360005b83811015620003a05781518601620003858882620003aa565b8452602084019350602083019250506001810190506200036c565b5050505092915050565b600082601f830112620003bc57600080fd5b8151620003d3620003cd82620004f2565b6200049b565b91508082526020830160208301858383011115620003f057600080fd5b620003fd83828462000535565b50505092915050565b6000602082840312156200041957600080fd5b600082015167ffffffffffffffff8111156200043457600080fd5b62000442848285016200032d565b91505092915050565b600062000458826200051f565b6200046481856200052a565b93506200047681856020860162000535565b80840191505092915050565b60006200049082846200044b565b915081905092915050565b6000604051905081810181811067ffffffffffffffff82111715620004bf57600080fd5b8060405250919050565b600067ffffffffffffffff821115620004e157600080fd5b602082029050602081019050919050565b600067ffffffffffffffff8211156200050a57600080fd5b601f19601f8301169050602081019050919050565b600081519050919050565b600081905092915050565b60005b838110156200055557808201518184015260208101905062000538565b8381111562000565576000848401525b50505050565b610c45806200057b6000396000f3fe608060405234801561001057600080fd5b506004361061009e5760003560e01c8063b0c8f9dc11610066578063b0c8f9dc1461015c578063c76cd69d14610178578063cfaf1d1014610196578063ef35bf4a146101c6578063f29db719146101f65761009e565b806303cf51dd146100a357806354a25ceb146100c1578063656ff5ff146100df5780636833d54f14610110578063accb788914610140575b600080fd5b6100ab610226565b6040516100b89190610a63565b60405180910390f35b6100c9610238565b6040516100d69190610a63565b60405180910390f35b6100f960048036036100f491908101906107d4565b61024b565b604051610107929190610a7e565b60405180910390f35b61012a600480360361012591908101906107d4565b610327565b60405161013791906109cd565b60405180910390f35b61015a60048036036101559190810190610815565b61035c565b005b610176600480360361017191908101906107d4565b61045c565b005b6101806104d4565b60405161018d9190610a48565b60405180910390f35b6101b060048036036101ab9190810190610793565b6104e1565b6040516101bd91906109cd565b60405180910390f35b6101e060048036036101db91908101906108bd565b610517565b6040516101ed91906109e8565b60405180910390f35b610210600480360361020b9190810190610869565b6105d0565b60405161021d9190610a63565b60405180910390f35b6000809054906101000a900460ff1681565b600060019054906101000a900460ff1681565b6000806000809050600080905060008090505b600060019054906101000a900460ff1660ff168160ff161015610319576001810160028760405161028f91906109b6565b90815260200160405180910390208260ff16600a81106102ab57fe5b602091828204019190069054906101000a900460ff1602820191506002866040516102d691906109b6565b90815260200160405180910390208160ff16600a81106102f257fe5b602091828204019190069054906101000a900460ff1683019250808060010191505061025e565b508082935093505050915091565b600060018260405161033991906109b6565b908152602001604051809103902060009054906101000a900460ff169050919050565b6000600182039050600160028460405161037691906109b6565b90815260200160405180910390208260ff16600a811061039257fe5b602091828204019190068282829054906101000a900460ff160192506101000a81548160ff021916908360ff1602179055503373ffffffffffffffffffffffffffffffffffffffff167f98decb46bc074aabd77a833231d40e641fe4f975749858c822a96e552f0e51cd848460028760405161040e91906109b6565b90815260200160405180910390208560ff16600a811061042a57fe5b602091828204019190069054906101000a900460ff1660405161044f93929190610a0a565b60405180910390a2505050565b600381908060018154018082558091505090600182039060005260206000200160009091929091909150908051906020019061049992919061061c565b5050600180826040516104ac91906109b6565b908152602001604051809103902060006101000a81548160ff02191690831515021790555050565b6000600380549050905090565b6001818051602081018201805184825260208301602085012081835280955050505050506000915054906101000a900460ff1681565b6003818154811061052457fe5b906000526020600020016000915090508054600181600116156101000203166002900480601f0160208091040260200160405190810160405280929190818152602001828054600181600116156101000203166002900480156105c85780601f1061059d576101008083540402835291602001916105c8565b820191906000526020600020905b8154815290600101906020018083116105ab57829003601f168201915b505050505081565b60028280516020810182018051848252602083016020850120818352809550505050505081600a81106105ff57fe5b60209182820401919006915091509054906101000a900460ff1681565b828054600181600116156101000203166002900490600052602060002090601f016020900481019282601f1061065d57805160ff191683800117855561068b565b8280016001018555821561068b579182015b8281111561068a57825182559160200191906001019061066f565b5b509050610698919061069c565b5090565b6106be91905b808211156106ba5760008160009055506001016106a2565b5090565b90565b600082601f8301126106d257600080fd5b81356106e56106e082610ad4565b610aa7565b9150808252602083016020830185838301111561070157600080fd5b61070c838284610b81565b50505092915050565b600082601f83011261072657600080fd5b813561073961073482610b00565b610aa7565b9150808252602083016020830185838301111561075557600080fd5b610760838284610b81565b50505092915050565b60008135905061077881610bd4565b92915050565b60008135905061078d81610beb565b92915050565b6000602082840312156107a557600080fd5b600082013567ffffffffffffffff8111156107bf57600080fd5b6107cb848285016106c1565b91505092915050565b6000602082840312156107e657600080fd5b600082013567ffffffffffffffff81111561080057600080fd5b61080c84828501610715565b91505092915050565b6000806040838503121561082857600080fd5b600083013567ffffffffffffffff81111561084257600080fd5b61084e85828601610715565b925050602061085f8582860161077e565b9150509250929050565b6000806040838503121561087c57600080fd5b600083013567ffffffffffffffff81111561089657600080fd5b6108a2858286016106c1565b92505060206108b385828601610769565b9150509250929050565b6000602082840312156108cf57600080fd5b60006108dd84828501610769565b91505092915050565b6108ef81610b5e565b82525050565b600061090082610b37565b61090a8185610b42565b935061091a818560208601610b90565b61092381610bc3565b840191505092915050565b600061093982610b37565b6109438185610b53565b9350610953818560208601610b90565b80840191505092915050565b600061096a82610b2c565b6109748185610b42565b9350610984818560208601610b90565b61098d81610bc3565b840191505092915050565b6109a181610b6a565b82525050565b6109b081610b74565b82525050565b60006109c2828461092e565b915081905092915050565b60006020820190506109e260008301846108e6565b92915050565b60006020820190508181036000830152610a02818461095f565b905092915050565b60006060820190508181036000830152610a2481866108f5565b9050610a3360208301856109a7565b610a4060408301846109a7565b949350505050565b6000602082019050610a5d6000830184610998565b92915050565b6000602082019050610a7860008301846109a7565b92915050565b6000604082019050610a9360008301856109a7565b610aa060208301846109a7565b9392505050565b6000604051905081810181811067ffffffffffffffff82111715610aca57600080fd5b8060405250919050565b600067ffffffffffffffff821115610aeb57600080fd5b601f19601f8301169050602081019050919050565b600067ffffffffffffffff821115610b1757600080fd5b601f19601f8301169050602081019050919050565b600081519050919050565b600081519050919050565b600082825260208201905092915050565b600081905092915050565b60008115159050919050565b6000819050919050565b600060ff82169050919050565b82818337600083830152505050565b60005b83811015610bae578082015181840152602081019050610b93565b83811115610bbd576000848401525b50505050565b6000601f19601f8301169050919050565b610bdd81610b6a565b8114610be857600080fd5b50565b610bf481610b74565b8114610bff57600080fd5b5056fea365627a7a723158204cf44a4d0d243ae52f8ad7b3c5a3243b6f95b086f548281501c23222adb93e1c6c6578706572696d656e74616cf564736f6c63430005100040",
  "source": "/* pragma solidity >=0.4.22 <0.8.0; */\npragma experimental ABIEncoderV2;\n\ncontract Rating {\n  uint8 public minRating = 1;\n  uint8 public maxRating = 10;\n\n  // mapping (string => uint8) public ratingsReceived;\n  mapping (string => bool) public inBandList;\n  mapping (string => uint8[10]) public numVotes;\n\n  string[] public bandList;\n\n  constructor(string[] memory _bandList) public {\n    bandList = _bandList;\n\n    for (uint8 i=0; i<_bandList.length; i++) {\n      string memory bandName = _bandList[i];\n      inBandList[bandName] = true;\n      for (uint8 j=minRating-1; j < maxRating; j++){\n          numVotes[bandName][j] = 0;\n      }\n    }\n  }\n\n  event VoteApplied(address indexed _from, string _band, uint8 _rating, uint8 _voteNum);\n\n  function ratingFor(string memory _band) view public returns (uint8, uint8) {\n    uint8 _numVotes = 0;\n    uint8 _ratingSum = 0;\n\n    for (uint8 i=0; i < maxRating; i++){\n        _ratingSum += numVotes[_band][i] * (i + 1);\n        _numVotes += numVotes[_band][i];\n    }\n    return (_ratingSum, _numVotes);\n  }\n\n  function add(string memory _band) public {\n    bandList.push(_band);\n    inBandList[_band] = true;\n  }\n\n  function contains(string memory _band) view public returns (bool){\n      return inBandList[_band];\n  }\n\n  function voteForBand(string memory _band, uint8 _rating) public {\n    uint8 _index = _rating - 1;\n    numVotes[_band][_index] += 1;\n    emit VoteApplied(msg.sender, _band, _rating, numVotes[_band][_index]);\n  }\n\n  function bandCount() view public returns (uint256 _count){\n    return bandList.length;\n  }\n}\n",
  "sourcePath": "/Users/reshetn/Documents/GitHub/eth-band-rating/rating/contracts/Rating.sol",
  "compiler": {
    "name": "solc",
    "version": "0.5.16+commit.9c3226ce.Emscripten.clang"
  },
  "schemaVersion": "3.3.1",
  "updatedAt": "2022-05-14T06:49:27.333Z",
  "networkType": "ethereum",
  "devdoc": {
    "methods": {}
  },
  "userdoc": {
    "methods": {}
  }
}