{
  "contractName": "Rating",
  "abi": [
    {
      "inputs": [
        {
          "internalType": "string[]",
          "name": "_bandList",
          "type": "string[]"
        }
      ],
      "payable": false,
      "stateMutability": "nonpayable",
      "type": "constructor"
    },
    {
      "constant": true,
      "inputs": [
        {
          "internalType": "uint256",
          "name": "",
          "type": "uint256"
        }
      ],
      "name": "bandList",
      "outputs": [
        {
          "internalType": "string",
          "name": "",
          "type": "string"
        }
      ],
      "payable": false,
      "stateMutability": "view",
      "type": "function"
    },
    {
      "constant": true,
      "inputs": [
        {
          "internalType": "string",
          "name": "",
          "type": "string"
        }
      ],
      "name": "inBandList",
      "outputs": [
        {
          "internalType": "bool",
          "name": "",
          "type": "bool"
        }
      ],
      "payable": false,
      "stateMutability": "view",
      "type": "function"
    },
    {
      "constant": true,
      "inputs": [
        {
          "internalType": "string",
          "name": "",
          "type": "string"
        }
      ],
      "name": "ratingsReceived",
      "outputs": [
        {
          "internalType": "uint8",
          "name": "",
          "type": "uint8"
        }
      ],
      "payable": false,
      "stateMutability": "view",
      "type": "function"
    },
    {
      "constant": true,
      "inputs": [
        {
          "internalType": "string",
          "name": "_band",
          "type": "string"
        }
      ],
      "name": "totalVotesFor",
      "outputs": [
        {
          "internalType": "uint8",
          "name": "",
          "type": "uint8"
        }
      ],
      "payable": false,
      "stateMutability": "view",
      "type": "function"
    },
    {
      "constant": false,
      "inputs": [
        {
          "internalType": "string",
          "name": "_band",
          "type": "string"
        }
      ],
      "name": "add",
      "outputs": [],
      "payable": false,
      "stateMutability": "nonpayable",
      "type": "function"
    },
    {
      "constant": true,
      "inputs": [
        {
          "internalType": "string",
          "name": "_band",
          "type": "string"
        }
      ],
      "name": "contains",
      "outputs": [
        {
          "internalType": "bool",
          "name": "",
          "type": "bool"
        }
      ],
      "payable": false,
      "stateMutability": "view",
      "type": "function"
    },
    {
      "constant": false,
      "inputs": [
        {
          "internalType": "string",
          "name": "_band",
          "type": "string"
        }
      ],
      "name": "voteForBand",
      "outputs": [],
      "payable": false,
      "stateMutability": "nonpayable",
      "type": "function"
    }
  ],
  "bytecode": "0x60806040523480156200001157600080fd5b5060405162000d4238038062000d4283398181016040526200003791908101906200032e565b80600290805190602001906200004f929190620000c2565b5060008090505b8151811015620000ba576001808383815181106200007057fe5b6020026020010151604051620000879190620003aa565b908152602001604051809103902060006101000a81548160ff021916908315150217905550808060010191505062000056565b505062000493565b82805482825590600052602060002090810192821562000116579160200282015b82811115620001155782518290805190602001906200010492919062000129565b5091602001919060010190620000e3565b5b509050620001259190620001b0565b5090565b828054600181600116156101000203166002900490600052602060002090601f016020900481019282601f106200016c57805160ff19168380011785556200019d565b828001600101855582156200019d579182015b828111156200019c5782518255916020019190600101906200017f565b5b509050620001ac9190620001e1565b5090565b620001de91905b80821115620001da5760008181620001d0919062000209565b50600101620001b7565b5090565b90565b6200020691905b8082111562000202576000816000905550600101620001e8565b5090565b90565b50805460018160011615610100020316600290046000825580601f1062000231575062000252565b601f016020900490600052602060002090810190620002519190620001e1565b5b50565b600082601f8301126200026757600080fd5b81516200027e6200027882620003f1565b620003c3565b9150818183526020840193506020810190508360005b83811015620002c85781518601620002ad8882620002d2565b84526020840193506020830192505060018101905062000294565b5050505092915050565b600082601f830112620002e457600080fd5b8151620002fb620002f5826200041a565b620003c3565b915080825260208301602083018583830111156200031857600080fd5b620003258382846200045d565b50505092915050565b6000602082840312156200034157600080fd5b600082015167ffffffffffffffff8111156200035c57600080fd5b6200036a8482850162000255565b91505092915050565b6000620003808262000447565b6200038c818562000452565b93506200039e8185602086016200045d565b80840191505092915050565b6000620003b8828462000373565b915081905092915050565b6000604051905081810181811067ffffffffffffffff82111715620003e757600080fd5b8060405250919050565b600067ffffffffffffffff8211156200040957600080fd5b602082029050602081019050919050565b600067ffffffffffffffff8211156200043257600080fd5b601f19601f8301169050602081019050919050565b600081519050919050565b600081905092915050565b60005b838110156200047d57808201518184015260208101905062000460565b838111156200048d576000848401525b50505050565b61089f80620004a36000396000f3fe608060405234801561001057600080fd5b506004361061007d5760003560e01c8063b0c8f9dc1161005b578063b0c8f9dc14610112578063b63e8aee1461012e578063cfaf1d101461014a578063ef35bf4a1461017a5761007d565b80630991aec6146100825780634a3bf377146100b25780636833d54f146100e2575b600080fd5b61009c60048036036100979190810190610576565b6101aa565b6040516100a991906106fd565b60405180910390f35b6100cc60048036036100c791908101906105b7565b6101e0565b6040516100d991906106fd565b60405180910390f35b6100fc60048036036100f791908101906105b7565b610214565b60405161010991906106c0565b60405180910390f35b61012c600480360361012791908101906105b7565b610249565b005b610148600480360361014391908101906105b7565b6102c1565b005b610164600480360361015f9190810190610576565b610325565b60405161017191906106c0565b60405180910390f35b610194600480360361018f91908101906105f8565b61035b565b6040516101a191906106db565b60405180910390f35b6000818051602081018201805184825260208301602085012081835280955050505050506000915054906101000a900460ff1681565b600080826040516101f191906106a9565b908152602001604051809103902060009054906101000a900460ff169050919050565b600060018260405161022691906106a9565b908152602001604051809103902060009054906101000a900460ff169050919050565b6002819080600181540180825580915050906001820390600052602060002001600090919290919091509080519060200190610286929190610414565b50506001808260405161029991906106a9565b908152602001604051809103902060006101000a81548160ff02191690831515021790555050565b60016000826040516102d391906106a9565b908152602001604051809103902060008282829054906101000a900460ff160192506101000a81548160ff021916908360ff16021790555061031481610214565b6103225761032181610249565b5b50565b6001818051602081018201805184825260208301602085012081835280955050505050506000915054906101000a900460ff1681565b6002818154811061036857fe5b906000526020600020016000915090508054600181600116156101000203166002900480601f01602080910402602001604051908101604052809291908181526020018280546001816001161561010002031660029004801561040c5780601f106103e15761010080835404028352916020019161040c565b820191906000526020600020905b8154815290600101906020018083116103ef57829003601f168201915b505050505081565b828054600181600116156101000203166002900490600052602060002090601f016020900481019282601f1061045557805160ff1916838001178555610483565b82800160010185558215610483579182015b82811115610482578251825591602001919060010190610467565b5b5090506104909190610494565b5090565b6104b691905b808211156104b257600081600090555060010161049a565b5090565b90565b600082601f8301126104ca57600080fd5b81356104dd6104d882610745565b610718565b915080825260208301602083018583830111156104f957600080fd5b6105048382846107f2565b50505092915050565b600082601f83011261051e57600080fd5b813561053161052c82610771565b610718565b9150808252602083016020830185838301111561054d57600080fd5b6105588382846107f2565b50505092915050565b60008135905061057081610845565b92915050565b60006020828403121561058857600080fd5b600082013567ffffffffffffffff8111156105a257600080fd5b6105ae848285016104b9565b91505092915050565b6000602082840312156105c957600080fd5b600082013567ffffffffffffffff8111156105e357600080fd5b6105ef8482850161050d565b91505092915050565b60006020828403121561060a57600080fd5b600061061884828501610561565b91505092915050565b61062a816107cf565b82525050565b600061063b826107a8565b61064581856107c4565b9350610655818560208601610801565b80840191505092915050565b600061066c8261079d565b61067681856107b3565b9350610686818560208601610801565b61068f81610834565b840191505092915050565b6106a3816107e5565b82525050565b60006106b58284610630565b915081905092915050565b60006020820190506106d56000830184610621565b92915050565b600060208201905081810360008301526106f58184610661565b905092915050565b6000602082019050610712600083018461069a565b92915050565b6000604051905081810181811067ffffffffffffffff8211171561073b57600080fd5b8060405250919050565b600067ffffffffffffffff82111561075c57600080fd5b601f19601f8301169050602081019050919050565b600067ffffffffffffffff82111561078857600080fd5b601f19601f8301169050602081019050919050565b600081519050919050565b600081519050919050565b600082825260208201905092915050565b600081905092915050565b60008115159050919050565b6000819050919050565b600060ff82169050919050565b82818337600083830152505050565b60005b8381101561081f578082015181840152602081019050610804565b8381111561082e576000848401525b50505050565b6000601f19601f8301169050919050565b61084e816107db565b811461085957600080fd5b5056fea365627a7a72315820afaea5c7cb5ff82a456a97556fc03ddb3478fed1885245c27f81042042390ea66c6578706572696d656e74616cf564736f6c63430005100040",
  "source": "/* pragma solidity >=0.4.22 <0.8.0; */\npragma experimental ABIEncoderV2;\n\ncontract Rating {\n  mapping (string => uint8) public ratingsReceived;\n  mapping (string => bool) public inBandList;\n\n  string[] public bandList;\n\n  constructor(string[] memory _bandList) public {\n    bandList = _bandList;\n\n    for (uint i=0; i<_bandList.length; i++) {\n      inBandList[_bandList[i]] = true;\n    }\n  }\n\n  /* function Rating(bytes32[] memory bandNames) public {\n    bandList = bandNames;\n  } */\n\n  function totalVotesFor(string memory _band) view public returns (uint8) {\n    return ratingsReceived[_band];\n  }\n\n\n  function add(string memory _band) public {\n    bandList.push(_band);\n    inBandList[_band] = true;\n  }\n\n  function contains(string memory _band) view public returns (bool){\n      return inBandList[_band];\n  }\n\n  function voteForBand(string memory _band) public {\n    ratingsReceived[_band] += 1;\n    if (!contains(_band)){\n      add(_band);\n    }\n  }\n}\n",
  "sourcePath": "/Users/reshetn/Documents/GitHub/eth-band-rating/rating/contracts/Rating.sol",
  "compiler": {
    "name": "solc",
    "version": "0.5.16+commit.9c3226ce.Emscripten.clang"
  },
  "schemaVersion": "3.3.1",
  "updatedAt": "2020-11-09T00:57:20.135Z",
  "networkType": "ethereum",
  "devdoc": {
    "methods": {}
  },
  "userdoc": {
    "methods": {}
  }
}