{
  "contractName": "Rating",
  "abi": [
    {
      "inputs": [
        {
          "internalType": "string[]",
          "name": "_bandList",
          "type": "string[]"
        }
      ],
      "payable": false,
      "stateMutability": "nonpayable",
      "type": "constructor"
    },
    {
      "constant": true,
      "inputs": [
        {
          "internalType": "uint256",
          "name": "",
          "type": "uint256"
        }
      ],
      "name": "bandList",
      "outputs": [
        {
          "internalType": "string",
          "name": "",
          "type": "string"
        }
      ],
      "payable": false,
      "stateMutability": "view",
      "type": "function"
    },
    {
      "constant": true,
      "inputs": [
        {
          "internalType": "string",
          "name": "",
          "type": "string"
        }
      ],
      "name": "inBandList",
      "outputs": [
        {
          "internalType": "bool",
          "name": "",
          "type": "bool"
        }
      ],
      "payable": false,
      "stateMutability": "view",
      "type": "function"
    },
    {
      "constant": true,
      "inputs": [],
      "name": "maxRating",
      "outputs": [
        {
          "internalType": "uint8",
          "name": "",
          "type": "uint8"
        }
      ],
      "payable": false,
      "stateMutability": "view",
      "type": "function"
    },
    {
      "constant": true,
      "inputs": [],
      "name": "minRating",
      "outputs": [
        {
          "internalType": "uint8",
          "name": "",
          "type": "uint8"
        }
      ],
      "payable": false,
      "stateMutability": "view",
      "type": "function"
    },
    {
      "constant": true,
      "inputs": [
        {
          "internalType": "string",
          "name": "",
          "type": "string"
        },
        {
          "internalType": "uint256",
          "name": "",
          "type": "uint256"
        }
      ],
      "name": "numVotes",
      "outputs": [
        {
          "internalType": "uint8",
          "name": "",
          "type": "uint8"
        }
      ],
      "payable": false,
      "stateMutability": "view",
      "type": "function"
    },
    {
      "constant": true,
      "inputs": [
        {
          "internalType": "string",
          "name": "_band",
          "type": "string"
        }
      ],
      "name": "ratingFor",
      "outputs": [
        {
          "internalType": "uint8",
          "name": "",
          "type": "uint8"
        },
        {
          "internalType": "uint8",
          "name": "",
          "type": "uint8"
        }
      ],
      "payable": false,
      "stateMutability": "view",
      "type": "function"
    },
    {
      "constant": false,
      "inputs": [
        {
          "internalType": "string",
          "name": "_band",
          "type": "string"
        }
      ],
      "name": "add",
      "outputs": [],
      "payable": false,
      "stateMutability": "nonpayable",
      "type": "function"
    },
    {
      "constant": true,
      "inputs": [
        {
          "internalType": "string",
          "name": "_band",
          "type": "string"
        }
      ],
      "name": "contains",
      "outputs": [
        {
          "internalType": "bool",
          "name": "",
          "type": "bool"
        }
      ],
      "payable": false,
      "stateMutability": "view",
      "type": "function"
    },
    {
      "constant": false,
      "inputs": [
        {
          "internalType": "string",
          "name": "_band",
          "type": "string"
        },
        {
          "internalType": "uint8",
          "name": "_rating",
          "type": "uint8"
        }
      ],
      "name": "voteForBand",
      "outputs": [],
      "payable": false,
      "stateMutability": "nonpayable",
      "type": "function"
    }
  ],
  "bytecode": "0x608060405260016000806101000a81548160ff021916908360ff160217905550600a600060016101000a81548160ff021916908360ff1602179055503480156200004857600080fd5b50604051620010563803806200105683398181016040526200006e919081019062000406565b8060039080519060200190620000869291906200019a565b5060008090505b81518160ff16101562000192576060828260ff1681518110620000ac57fe5b6020026020010151905060018082604051620000c9919062000482565b908152602001604051809103902060006101000a81548160ff021916908315150217905550600060016000809054906101000a900460ff160390505b600060019054906101000a900460ff1660ff168160ff1610156200018257600060028360405162000137919062000482565b90815260200160405180910390208260ff16600a81106200015457fe5b602091828204019190066101000a81548160ff021916908360ff160217905550808060010191505062000105565b505080806001019150506200008d565b50506200056b565b828054828255906000526020600020908101928215620001ee579160200282015b82811115620001ed578251829080519060200190620001dc92919062000201565b5091602001919060010190620001bb565b5b509050620001fd919062000288565b5090565b828054600181600116156101000203166002900490600052602060002090601f016020900481019282601f106200024457805160ff191683800117855562000275565b8280016001018555821562000275579182015b828111156200027457825182559160200191906001019062000257565b5b509050620002849190620002b9565b5090565b620002b691905b80821115620002b25760008181620002a89190620002e1565b506001016200028f565b5090565b90565b620002de91905b80821115620002da576000816000905550600101620002c0565b5090565b90565b50805460018160011615610100020316600290046000825580601f106200030957506200032a565b601f016020900490600052602060002090810190620003299190620002b9565b5b50565b600082601f8301126200033f57600080fd5b8151620003566200035082620004c9565b6200049b565b9150818183526020840193506020810190508360005b83811015620003a05781518601620003858882620003aa565b8452602084019350602083019250506001810190506200036c565b5050505092915050565b600082601f830112620003bc57600080fd5b8151620003d3620003cd82620004f2565b6200049b565b91508082526020830160208301858383011115620003f057600080fd5b620003fd83828462000535565b50505092915050565b6000602082840312156200041957600080fd5b600082015167ffffffffffffffff8111156200043457600080fd5b62000442848285016200032d565b91505092915050565b600062000458826200051f565b6200046481856200052a565b93506200047681856020860162000535565b80840191505092915050565b60006200049082846200044b565b915081905092915050565b6000604051905081810181811067ffffffffffffffff82111715620004bf57600080fd5b8060405250919050565b600067ffffffffffffffff821115620004e157600080fd5b602082029050602081019050919050565b600067ffffffffffffffff8211156200050a57600080fd5b601f19601f8301169050602081019050919050565b600081519050919050565b600081905092915050565b60005b838110156200055557808201518184015260208101905062000538565b8381111562000565576000848401525b50505050565b610adb806200057b6000396000f3fe608060405234801561001057600080fd5b50600436106100935760003560e01c8063accb788911610066578063accb788914610135578063b0c8f9dc14610151578063cfaf1d101461016d578063ef35bf4a1461019d578063f29db719146101cd57610093565b806303cf51dd1461009857806354a25ceb146100b6578063656ff5ff146100d45780636833d54f14610105575b600080fd5b6100a06101fd565b6040516100ad91906108f9565b60405180910390f35b6100be61020f565b6040516100cb91906108f9565b60405180910390f35b6100ee60048036036100e9919081019061070b565b610222565b6040516100fc929190610914565b60405180910390f35b61011f600480360361011a919081019061070b565b6102fe565b60405161012c91906108bc565b60405180910390f35b61014f600480360361014a919081019061074c565b610333565b005b61016b6004803603610166919081019061070b565b6103a0565b005b610187600480360361018291908101906106ca565b610418565b60405161019491906108bc565b60405180910390f35b6101b760048036036101b291908101906107f4565b61044e565b6040516101c491906108d7565b60405180910390f35b6101e760048036036101e291908101906107a0565b610507565b6040516101f491906108f9565b60405180910390f35b6000809054906101000a900460ff1681565b600060019054906101000a900460ff1681565b6000806000809050600080905060008090505b600060019054906101000a900460ff1660ff168160ff1610156102f0576001810160028760405161026691906108a5565b90815260200160405180910390208260ff16600a811061028257fe5b602091828204019190069054906101000a900460ff1602820191506002866040516102ad91906108a5565b90815260200160405180910390208160ff16600a81106102c957fe5b602091828204019190069054906101000a900460ff16830192508080600101915050610235565b508082935093505050915091565b600060018260405161031091906108a5565b908152602001604051809103902060009054906101000a900460ff169050919050565b6000600182039050600160028460405161034d91906108a5565b90815260200160405180910390208260ff16600a811061036957fe5b602091828204019190068282829054906101000a900460ff160192506101000a81548160ff021916908360ff160217905550505050565b60038190806001815401808255809150509060018203906000526020600020016000909192909190915090805190602001906103dd929190610553565b5050600180826040516103f091906108a5565b908152602001604051809103902060006101000a81548160ff02191690831515021790555050565b6001818051602081018201805184825260208301602085012081835280955050505050506000915054906101000a900460ff1681565b6003818154811061045b57fe5b906000526020600020016000915090508054600181600116156101000203166002900480601f0160208091040260200160405190810160405280929190818152602001828054600181600116156101000203166002900480156104ff5780601f106104d4576101008083540402835291602001916104ff565b820191906000526020600020905b8154815290600101906020018083116104e257829003601f168201915b505050505081565b60028280516020810182018051848252602083016020850120818352809550505050505081600a811061053657fe5b60209182820401919006915091509054906101000a900460ff1681565b828054600181600116156101000203166002900490600052602060002090601f016020900481019282601f1061059457805160ff19168380011785556105c2565b828001600101855582156105c2579182015b828111156105c15782518255916020019190600101906105a6565b5b5090506105cf91906105d3565b5090565b6105f591905b808211156105f15760008160009055506001016105d9565b5090565b90565b600082601f83011261060957600080fd5b813561061c6106178261096a565b61093d565b9150808252602083016020830185838301111561063857600080fd5b610643838284610a17565b50505092915050565b600082601f83011261065d57600080fd5b813561067061066b82610996565b61093d565b9150808252602083016020830185838301111561068c57600080fd5b610697838284610a17565b50505092915050565b6000813590506106af81610a6a565b92915050565b6000813590506106c481610a81565b92915050565b6000602082840312156106dc57600080fd5b600082013567ffffffffffffffff8111156106f657600080fd5b610702848285016105f8565b91505092915050565b60006020828403121561071d57600080fd5b600082013567ffffffffffffffff81111561073757600080fd5b6107438482850161064c565b91505092915050565b6000806040838503121561075f57600080fd5b600083013567ffffffffffffffff81111561077957600080fd5b6107858582860161064c565b9250506020610796858286016106b5565b9150509250929050565b600080604083850312156107b357600080fd5b600083013567ffffffffffffffff8111156107cd57600080fd5b6107d9858286016105f8565b92505060206107ea858286016106a0565b9150509250929050565b60006020828403121561080657600080fd5b6000610814848285016106a0565b91505092915050565b610826816109f4565b82525050565b6000610837826109cd565b61084181856109e9565b9350610851818560208601610a26565b80840191505092915050565b6000610868826109c2565b61087281856109d8565b9350610882818560208601610a26565b61088b81610a59565b840191505092915050565b61089f81610a0a565b82525050565b60006108b1828461082c565b915081905092915050565b60006020820190506108d1600083018461081d565b92915050565b600060208201905081810360008301526108f1818461085d565b905092915050565b600060208201905061090e6000830184610896565b92915050565b60006040820190506109296000830185610896565b6109366020830184610896565b9392505050565b6000604051905081810181811067ffffffffffffffff8211171561096057600080fd5b8060405250919050565b600067ffffffffffffffff82111561098157600080fd5b601f19601f8301169050602081019050919050565b600067ffffffffffffffff8211156109ad57600080fd5b601f19601f8301169050602081019050919050565b600081519050919050565b600081519050919050565b600082825260208201905092915050565b600081905092915050565b60008115159050919050565b6000819050919050565b600060ff82169050919050565b82818337600083830152505050565b60005b83811015610a44578082015181840152602081019050610a29565b83811115610a53576000848401525b50505050565b6000601f19601f8301169050919050565b610a7381610a00565b8114610a7e57600080fd5b50565b610a8a81610a0a565b8114610a9557600080fd5b5056fea365627a7a7231582090d1a3e1f7e7a4232f23f18c1c91bd05a497541b24a7d0eea8905d7a120d47b16c6578706572696d656e74616cf564736f6c63430005100040",
  "source": "/* pragma solidity >=0.4.22 <0.8.0; */\npragma experimental ABIEncoderV2;\n\ncontract Rating {\n  uint8 public minRating = 1;\n  uint8 public maxRating = 10;\n\n  // struct Band {\n  //\n  // }\n\n  // mapping (string => uint8) public ratingsReceived;\n  mapping (string => bool) public inBandList;\n  mapping (string => uint8[10]) public numVotes;\n\n  string[] public bandList;\n\n  constructor(string[] memory _bandList) public {\n    bandList = _bandList;\n\n    for (uint8 i=0; i<_bandList.length; i++) {\n      string memory bandName = _bandList[i];\n      inBandList[bandName] = true;\n      for (uint8 j=minRating-1; j < maxRating; j++){\n          numVotes[bandName][j] = 0;\n      }\n    }\n  }\n\n  // function totalVotesFor(string memory _band) view public returns (uint8) {\n  //   return ratingsReceived[_band];\n  // }\n\n  function ratingFor(string memory _band) view public returns (uint8, uint8) {\n    uint8 _numVotes = 0;\n    uint8 _ratingSum = 0;\n\n    for (uint8 i=0; i < maxRating; i++){\n        _ratingSum += numVotes[_band][i] * (i + 1);\n        _numVotes += numVotes[_band][i];\n    }\n    return (_ratingSum, _numVotes);\n    // return 0;\n  }\n\n  function add(string memory _band) public {\n    bandList.push(_band);\n    inBandList[_band] = true;\n  }\n\n  function contains(string memory _band) view public returns (bool){\n      return inBandList[_band];\n  }\n\n  function voteForBand(string memory _band, uint8 _rating) public {\n    // ratingsReceived[_band] += 1;\n    uint8 _index = _rating - 1;\n    numVotes[_band][_index] += 1;\n  }\n}\n",
  "sourcePath": "/Users/reshetn/Documents/GitHub/eth-band-rating/rating/contracts/Rating.sol",
  "compiler": {
    "name": "solc",
    "version": "0.5.16+commit.9c3226ce.Emscripten.clang"
  },
  "schemaVersion": "3.3.1",
  "updatedAt": "2020-11-14T11:50:25.123Z",
  "networkType": "ethereum",
  "devdoc": {
    "methods": {}
  },
  "userdoc": {
    "methods": {}
  }
}