{
  "contractName": "Rating",
  "abi": [
    {
      "inputs": [
        {
          "internalType": "string[]",
          "name": "_bandList",
          "type": "string[]"
        }
      ],
      "payable": false,
      "stateMutability": "nonpayable",
      "type": "constructor"
    },
    {
      "constant": true,
      "inputs": [
        {
          "internalType": "uint256",
          "name": "",
          "type": "uint256"
        }
      ],
      "name": "bandList",
      "outputs": [
        {
          "internalType": "string",
          "name": "",
          "type": "string"
        }
      ],
      "payable": false,
      "stateMutability": "view",
      "type": "function"
    },
    {
      "constant": true,
      "inputs": [
        {
          "internalType": "string",
          "name": "",
          "type": "string"
        }
      ],
      "name": "inBandList",
      "outputs": [
        {
          "internalType": "bool",
          "name": "",
          "type": "bool"
        }
      ],
      "payable": false,
      "stateMutability": "view",
      "type": "function"
    },
    {
      "constant": true,
      "inputs": [],
      "name": "maxRating",
      "outputs": [
        {
          "internalType": "uint8",
          "name": "",
          "type": "uint8"
        }
      ],
      "payable": false,
      "stateMutability": "view",
      "type": "function"
    },
    {
      "constant": true,
      "inputs": [],
      "name": "minRating",
      "outputs": [
        {
          "internalType": "uint8",
          "name": "",
          "type": "uint8"
        }
      ],
      "payable": false,
      "stateMutability": "view",
      "type": "function"
    },
    {
      "constant": true,
      "inputs": [
        {
          "internalType": "string",
          "name": "",
          "type": "string"
        },
        {
          "internalType": "uint256",
          "name": "",
          "type": "uint256"
        }
      ],
      "name": "numVotes",
      "outputs": [
        {
          "internalType": "uint8",
          "name": "",
          "type": "uint8"
        }
      ],
      "payable": false,
      "stateMutability": "view",
      "type": "function"
    },
    {
      "constant": true,
      "inputs": [
        {
          "internalType": "string",
          "name": "_band",
          "type": "string"
        }
      ],
      "name": "ratingFor",
      "outputs": [
        {
          "internalType": "uint8",
          "name": "",
          "type": "uint8"
        },
        {
          "internalType": "uint8",
          "name": "",
          "type": "uint8"
        }
      ],
      "payable": false,
      "stateMutability": "view",
      "type": "function"
    },
    {
      "constant": false,
      "inputs": [
        {
          "internalType": "string",
          "name": "_band",
          "type": "string"
        }
      ],
      "name": "add",
      "outputs": [],
      "payable": false,
      "stateMutability": "nonpayable",
      "type": "function"
    },
    {
      "constant": true,
      "inputs": [
        {
          "internalType": "string",
          "name": "_band",
          "type": "string"
        }
      ],
      "name": "contains",
      "outputs": [
        {
          "internalType": "bool",
          "name": "",
          "type": "bool"
        }
      ],
      "payable": false,
      "stateMutability": "view",
      "type": "function"
    },
    {
      "constant": false,
      "inputs": [
        {
          "internalType": "string",
          "name": "_band",
          "type": "string"
        },
        {
          "internalType": "uint8",
          "name": "_rating",
          "type": "uint8"
        }
      ],
      "name": "voteForBand",
      "outputs": [],
      "payable": false,
      "stateMutability": "nonpayable",
      "type": "function"
    },
    {
      "constant": true,
      "inputs": [],
      "name": "bandCount",
      "outputs": [
        {
          "internalType": "uint256",
          "name": "_count",
          "type": "uint256"
        }
      ],
      "payable": false,
      "stateMutability": "view",
      "type": "function"
    }
  ],
  "bytecode": "0x608060405260016000806101000a81548160ff021916908360ff160217905550600a600060016101000a81548160ff021916908360ff1602179055503480156200004857600080fd5b50604051620010b6380380620010b683398181016040526200006e919081019062000406565b8060039080519060200190620000869291906200019a565b5060008090505b81518160ff16101562000192576060828260ff1681518110620000ac57fe5b6020026020010151905060018082604051620000c9919062000482565b908152602001604051809103902060006101000a81548160ff021916908315150217905550600060016000809054906101000a900460ff160390505b600060019054906101000a900460ff1660ff168160ff1610156200018257600060028360405162000137919062000482565b90815260200160405180910390208260ff16600a81106200015457fe5b602091828204019190066101000a81548160ff021916908360ff160217905550808060010191505062000105565b505080806001019150506200008d565b50506200056b565b828054828255906000526020600020908101928215620001ee579160200282015b82811115620001ed578251829080519060200190620001dc92919062000201565b5091602001919060010190620001bb565b5b509050620001fd919062000288565b5090565b828054600181600116156101000203166002900490600052602060002090601f016020900481019282601f106200024457805160ff191683800117855562000275565b8280016001018555821562000275579182015b828111156200027457825182559160200191906001019062000257565b5b509050620002849190620002b9565b5090565b620002b691905b80821115620002b25760008181620002a89190620002e1565b506001016200028f565b5090565b90565b620002de91905b80821115620002da576000816000905550600101620002c0565b5090565b90565b50805460018160011615610100020316600290046000825580601f106200030957506200032a565b601f016020900490600052602060002090810190620003299190620002b9565b5b50565b600082601f8301126200033f57600080fd5b8151620003566200035082620004c9565b6200049b565b9150818183526020840193506020810190508360005b83811015620003a05781518601620003858882620003aa565b8452602084019350602083019250506001810190506200036c565b5050505092915050565b600082601f830112620003bc57600080fd5b8151620003d3620003cd82620004f2565b6200049b565b91508082526020830160208301858383011115620003f057600080fd5b620003fd83828462000535565b50505092915050565b6000602082840312156200041957600080fd5b600082015167ffffffffffffffff8111156200043457600080fd5b62000442848285016200032d565b91505092915050565b600062000458826200051f565b6200046481856200052a565b93506200047681856020860162000535565b80840191505092915050565b60006200049082846200044b565b915081905092915050565b6000604051905081810181811067ffffffffffffffff82111715620004bf57600080fd5b8060405250919050565b600067ffffffffffffffff821115620004e157600080fd5b602082029050602081019050919050565b600067ffffffffffffffff8211156200050a57600080fd5b601f19601f8301169050602081019050919050565b600081519050919050565b600081905092915050565b60005b838110156200055557808201518184015260208101905062000538565b8381111562000565576000848401525b50505050565b610b3b806200057b6000396000f3fe608060405234801561001057600080fd5b506004361061009e5760003560e01c8063b0c8f9dc11610066578063b0c8f9dc1461015c578063c76cd69d14610178578063cfaf1d1014610196578063ef35bf4a146101c6578063f29db719146101f65761009e565b806303cf51dd146100a357806354a25ceb146100c1578063656ff5ff146100df5780636833d54f14610110578063accb788914610140575b600080fd5b6100ab610226565b6040516100b89190610959565b60405180910390f35b6100c9610238565b6040516100d69190610959565b60405180910390f35b6100f960048036036100f49190810190610741565b61024b565b604051610107929190610974565b60405180910390f35b61012a60048036036101259190810190610741565b610327565b6040516101379190610901565b60405180910390f35b61015a60048036036101559190810190610782565b61035c565b005b61017660048036036101719190810190610741565b6103c9565b005b610180610441565b60405161018d919061093e565b60405180910390f35b6101b060048036036101ab9190810190610700565b61044e565b6040516101bd9190610901565b60405180910390f35b6101e060048036036101db919081019061082a565b610484565b6040516101ed919061091c565b60405180910390f35b610210600480360361020b91908101906107d6565b61053d565b60405161021d9190610959565b60405180910390f35b6000809054906101000a900460ff1681565b600060019054906101000a900460ff1681565b6000806000809050600080905060008090505b600060019054906101000a900460ff1660ff168160ff161015610319576001810160028760405161028f91906108ea565b90815260200160405180910390208260ff16600a81106102ab57fe5b602091828204019190069054906101000a900460ff1602820191506002866040516102d691906108ea565b90815260200160405180910390208160ff16600a81106102f257fe5b602091828204019190069054906101000a900460ff1683019250808060010191505061025e565b508082935093505050915091565b600060018260405161033991906108ea565b908152602001604051809103902060009054906101000a900460ff169050919050565b6000600182039050600160028460405161037691906108ea565b90815260200160405180910390208260ff16600a811061039257fe5b602091828204019190068282829054906101000a900460ff160192506101000a81548160ff021916908360ff160217905550505050565b6003819080600181540180825580915050906001820390600052602060002001600090919290919091509080519060200190610406929190610589565b50506001808260405161041991906108ea565b908152602001604051809103902060006101000a81548160ff02191690831515021790555050565b6000600380549050905090565b6001818051602081018201805184825260208301602085012081835280955050505050506000915054906101000a900460ff1681565b6003818154811061049157fe5b906000526020600020016000915090508054600181600116156101000203166002900480601f0160208091040260200160405190810160405280929190818152602001828054600181600116156101000203166002900480156105355780601f1061050a57610100808354040283529160200191610535565b820191906000526020600020905b81548152906001019060200180831161051857829003601f168201915b505050505081565b60028280516020810182018051848252602083016020850120818352809550505050505081600a811061056c57fe5b60209182820401919006915091509054906101000a900460ff1681565b828054600181600116156101000203166002900490600052602060002090601f016020900481019282601f106105ca57805160ff19168380011785556105f8565b828001600101855582156105f8579182015b828111156105f75782518255916020019190600101906105dc565b5b5090506106059190610609565b5090565b61062b91905b8082111561062757600081600090555060010161060f565b5090565b90565b600082601f83011261063f57600080fd5b813561065261064d826109ca565b61099d565b9150808252602083016020830185838301111561066e57600080fd5b610679838284610a77565b50505092915050565b600082601f83011261069357600080fd5b81356106a66106a1826109f6565b61099d565b915080825260208301602083018583830111156106c257600080fd5b6106cd838284610a77565b50505092915050565b6000813590506106e581610aca565b92915050565b6000813590506106fa81610ae1565b92915050565b60006020828403121561071257600080fd5b600082013567ffffffffffffffff81111561072c57600080fd5b6107388482850161062e565b91505092915050565b60006020828403121561075357600080fd5b600082013567ffffffffffffffff81111561076d57600080fd5b61077984828501610682565b91505092915050565b6000806040838503121561079557600080fd5b600083013567ffffffffffffffff8111156107af57600080fd5b6107bb85828601610682565b92505060206107cc858286016106eb565b9150509250929050565b600080604083850312156107e957600080fd5b600083013567ffffffffffffffff81111561080357600080fd5b61080f8582860161062e565b9250506020610820858286016106d6565b9150509250929050565b60006020828403121561083c57600080fd5b600061084a848285016106d6565b91505092915050565b61085c81610a54565b82525050565b600061086d82610a2d565b6108778185610a49565b9350610887818560208601610a86565b80840191505092915050565b600061089e82610a22565b6108a88185610a38565b93506108b8818560208601610a86565b6108c181610ab9565b840191505092915050565b6108d581610a60565b82525050565b6108e481610a6a565b82525050565b60006108f68284610862565b915081905092915050565b60006020820190506109166000830184610853565b92915050565b600060208201905081810360008301526109368184610893565b905092915050565b600060208201905061095360008301846108cc565b92915050565b600060208201905061096e60008301846108db565b92915050565b600060408201905061098960008301856108db565b61099660208301846108db565b9392505050565b6000604051905081810181811067ffffffffffffffff821117156109c057600080fd5b8060405250919050565b600067ffffffffffffffff8211156109e157600080fd5b601f19601f8301169050602081019050919050565b600067ffffffffffffffff821115610a0d57600080fd5b601f19601f8301169050602081019050919050565b600081519050919050565b600081519050919050565b600082825260208201905092915050565b600081905092915050565b60008115159050919050565b6000819050919050565b600060ff82169050919050565b82818337600083830152505050565b60005b83811015610aa4578082015181840152602081019050610a89565b83811115610ab3576000848401525b50505050565b6000601f19601f8301169050919050565b610ad381610a60565b8114610ade57600080fd5b50565b610aea81610a6a565b8114610af557600080fd5b5056fea365627a7a72315820108cc71a9d2b8e19038a049fcbd8383b28b267c6ae35fd7eb62ff5f5bbfca2eb6c6578706572696d656e74616cf564736f6c63430005100040",
  "source": "/* pragma solidity >=0.4.22 <0.8.0; */\npragma experimental ABIEncoderV2;\n\ncontract Rating {\n  uint8 public minRating = 1;\n  uint8 public maxRating = 10;\n\n  // mapping (string => uint8) public ratingsReceived;\n  mapping (string => bool) public inBandList;\n  mapping (string => uint8[10]) public numVotes;\n\n  string[] public bandList;\n\n  constructor(string[] memory _bandList) public {\n    bandList = _bandList;\n\n    for (uint8 i=0; i<_bandList.length; i++) {\n      string memory bandName = _bandList[i];\n      inBandList[bandName] = true;\n      for (uint8 j=minRating-1; j < maxRating; j++){\n          numVotes[bandName][j] = 0;\n      }\n    }\n  }\n\n  // function totalVotesFor(string memory _band) view public returns (uint8) {\n  //   return ratingsReceived[_band];\n  // }\n\n  function ratingFor(string memory _band) view public returns (uint8, uint8) {\n    uint8 _numVotes = 0;\n    uint8 _ratingSum = 0;\n\n    for (uint8 i=0; i < maxRating; i++){\n        _ratingSum += numVotes[_band][i] * (i + 1);\n        _numVotes += numVotes[_band][i];\n    }\n    return (_ratingSum, _numVotes);\n    // return 0;\n  }\n\n  function add(string memory _band) public {\n    bandList.push(_band);\n    inBandList[_band] = true;\n  }\n\n  function contains(string memory _band) view public returns (bool){\n      return inBandList[_band];\n  }\n\n  function voteForBand(string memory _band, uint8 _rating) public {\n    // ratingsReceived[_band] += 1;\n    uint8 _index = _rating - 1;\n    numVotes[_band][_index] += 1;\n  }\n\n  function bandCount() view public returns (uint256 _count){\n    return bandList.length;\n  }\n}\n",
  "sourcePath": "/Users/reshetn/Documents/GitHub/eth-band-rating/rating/contracts/Rating.sol",
  "compiler": {
    "name": "solc",
    "version": "0.5.16+commit.9c3226ce.Emscripten.clang"
  },
  "schemaVersion": "3.3.1",
  "updatedAt": "2022-05-10T19:30:26.903Z",
  "networkType": "ethereum",
  "devdoc": {
    "methods": {}
  },
  "userdoc": {
    "methods": {}
  }
}