{
  "contractName": "Rating",
  "abi": [
    {
      "inputs": [
        {
          "internalType": "string[]",
          "name": "bandNames",
          "type": "string[]"
        }
      ],
      "payable": false,
      "stateMutability": "nonpayable",
      "type": "constructor"
    },
    {
      "constant": true,
      "inputs": [
        {
          "internalType": "uint256",
          "name": "",
          "type": "uint256"
        }
      ],
      "name": "bandList",
      "outputs": [
        {
          "internalType": "string",
          "name": "",
          "type": "string"
        }
      ],
      "payable": false,
      "stateMutability": "view",
      "type": "function"
    },
    {
      "constant": true,
      "inputs": [
        {
          "internalType": "bytes32",
          "name": "",
          "type": "bytes32"
        }
      ],
      "name": "ratingsReceived",
      "outputs": [
        {
          "internalType": "uint8",
          "name": "",
          "type": "uint8"
        }
      ],
      "payable": false,
      "stateMutability": "view",
      "type": "function"
    },
    {
      "constant": true,
      "inputs": [
        {
          "internalType": "bytes32",
          "name": "band",
          "type": "bytes32"
        }
      ],
      "name": "totalVotesFor",
      "outputs": [
        {
          "internalType": "uint8",
          "name": "",
          "type": "uint8"
        }
      ],
      "payable": false,
      "stateMutability": "view",
      "type": "function"
    },
    {
      "constant": false,
      "inputs": [
        {
          "internalType": "bytes32",
          "name": "band",
          "type": "bytes32"
        }
      ],
      "name": "voteForBand",
      "outputs": [],
      "payable": false,
      "stateMutability": "nonpayable",
      "type": "function"
    }
  ],
  "bytecode": "0x608060405234801561001057600080fd5b506040516107c73803806107c783398181016040526100329190810190610290565b806001908051906020019061004892919061004f565b5050610385565b82805482825590600052602060002090810192821561009e579160200282015b8281111561009d57825182908051906020019061008d9291906100af565b509160200191906001019061006f565b5b5090506100ab919061012f565b5090565b828054600181600116156101000203166002900490600052602060002090601f016020900481019282601f106100f057805160ff191683800117855561011e565b8280016001018555821561011e579182015b8281111561011d578251825591602001919060010190610102565b5b50905061012b919061015b565b5090565b61015891905b80821115610154576000818161014b9190610180565b50600101610135565b5090565b90565b61017d91905b80821115610179576000816000905550600101610161565b5090565b90565b50805460018160011615610100020316600290046000825580601f106101a657506101c5565b601f0160209004906000526020600020908101906101c4919061015b565b5b50565b600082601f8301126101d957600080fd5b81516101ec6101e7826102fe565b6102d1565b9150818183526020840193506020810190508360005b838110156102325781518601610218888261023c565b845260208401935060208301925050600181019050610202565b5050505092915050565b600082601f83011261024d57600080fd5b815161026061025b82610326565b6102d1565b9150808252602083016020830185838301111561027c57600080fd5b610287838284610352565b50505092915050565b6000602082840312156102a257600080fd5b600082015167ffffffffffffffff8111156102bc57600080fd5b6102c8848285016101c8565b91505092915050565b6000604051905081810181811067ffffffffffffffff821117156102f457600080fd5b8060405250919050565b600067ffffffffffffffff82111561031557600080fd5b602082029050602081019050919050565b600067ffffffffffffffff82111561033d57600080fd5b601f19601f8301169050602081019050919050565b60005b83811015610370578082015181840152602081019050610355565b8381111561037f576000848401525b50505050565b610433806103946000396000f3fe608060405234801561001057600080fd5b506004361061004c5760003560e01c80632f265cf7146100515780635f4187b014610081578063d2375694146100b1578063ef35bf4a146100cd575b600080fd5b61006b6004803603610066919081019061026a565b6100fd565b6040516100789190610326565b60405180910390f35b61009b6004803603610096919081019061026a565b610126565b6040516100a89190610326565b60405180910390f35b6100cb60048036036100c6919081019061026a565b610146565b005b6100e760048036036100e29190810190610293565b610187565b6040516100f49190610304565b60405180910390f35b600080600083815260200190815260200160002060009054906101000a900460ff169050919050565b60006020528060005260406000206000915054906101000a900460ff1681565b600160008083815260200190815260200160002060008282829054906101000a900460ff160192506101000a81548160ff021916908360ff16021790555050565b6001818154811061019457fe5b906000526020600020016000915090508054600181600116156101000203166002900480601f0160208091040260200160405190810160405280929190818152602001828054600181600116156101000203166002900480156102385780601f1061020d57610100808354040283529160200191610238565b820191906000526020600020905b81548152906001019060200180831161021b57829003601f168201915b505050505081565b60008135905061024f816103c2565b92915050565b600081359050610264816103d9565b92915050565b60006020828403121561027c57600080fd5b600061028a84828501610240565b91505092915050565b6000602082840312156102a557600080fd5b60006102b384828501610255565b91505092915050565b60006102c782610341565b6102d1818561034c565b93506102e181856020860161037e565b6102ea816103b1565b840191505092915050565b6102fe81610371565b82525050565b6000602082019050818103600083015261031e81846102bc565b905092915050565b600060208201905061033b60008301846102f5565b92915050565b600081519050919050565b600082825260208201905092915050565b6000819050919050565b6000819050919050565b600060ff82169050919050565b60005b8381101561039c578082015181840152602081019050610381565b838111156103ab576000848401525b50505050565b6000601f19601f8301169050919050565b6103cb8161035d565b81146103d657600080fd5b50565b6103e281610367565b81146103ed57600080fd5b5056fea365627a7a723158203a3717421845476450f92d6230673e22859aec236a0ce0e789b2c7d30b2f9f8f6c6578706572696d656e74616cf564736f6c63430005100040",
  "source": "/* pragma solidity >=0.4.22 <0.8.0; */\npragma experimental ABIEncoderV2;\n\ncontract Rating {\n  mapping (bytes32 => uint8) public ratingsReceived;\n\n  string[] public bandList;\n\n  constructor(string[] memory bandNames) public {\n    bandList = bandNames;\n  }\n\n  /* function Rating(bytes32[] memory bandNames) public {\n    bandList = bandNames;\n  } */\n\n  function totalVotesFor(bytes32 band) view public returns (uint8) {\n    return ratingsReceived[band];\n  }\n\n  function voteForBand(bytes32 band) public {\n    ratingsReceived[band] += 1;\n  }\n}\n",
  "sourcePath": "/Users/reshetn/Documents/GitHub/eth-band-rating/rating/contracts/Rating.sol",
  "compiler": {
    "name": "solc",
    "version": "0.5.16+commit.9c3226ce.Emscripten.clang"
  },
  "schemaVersion": "3.3.1",
  "updatedAt": "2020-10-31T22:44:40.004Z",
  "networkType": "ethereum",
  "devdoc": {
    "methods": {}
  },
  "userdoc": {
    "methods": {}
  }
}